{
  "contractName": "WHO",
  "abi": [
    {
      "constant": true,
      "inputs": [
        {
          "name": "",
          "type": "uint256"
        }
      ],
      "name": "vaccines",
      "outputs": [
        {
          "name": "name",
          "type": "string"
        },
        {
          "name": "date",
          "type": "string"
        },
        {
          "name": "applied",
          "type": "bool"
        }
      ],
      "payable": false,
      "stateMutability": "view",
      "type": "function",
      "signature": "0x300e88bd"
    },
    {
      "constant": true,
      "inputs": [
        {
          "name": "",
          "type": "address"
        }
      ],
      "name": "docPermition",
      "outputs": [
        {
          "name": "",
          "type": "bool"
        }
      ],
      "payable": false,
      "stateMutability": "view",
      "type": "function",
      "signature": "0xb47fdf47"
    },
    {
      "constant": true,
      "inputs": [],
      "name": "vaccinesId",
      "outputs": [
        {
          "name": "",
          "type": "uint256"
        }
      ],
      "payable": false,
      "stateMutability": "view",
      "type": "function",
      "signature": "0xee9b2a7e"
    },
    {
      "constant": false,
      "inputs": [
        {
          "name": "_name",
          "type": "string"
        },
        {
          "name": "_date",
          "type": "string"
        },
        {
          "name": "_applied",
          "type": "bool"
        }
      ],
      "name": "vaccinate",
      "outputs": [],
      "payable": false,
      "stateMutability": "nonpayable",
      "type": "function",
      "signature": "0xb8648669"
    },
    {
      "constant": false,
      "inputs": [
        {
          "name": "_docAdress",
          "type": "address"
        }
      ],
      "name": "addDoc",
      "outputs": [],
      "payable": false,
      "stateMutability": "nonpayable",
      "type": "function",
      "signature": "0xd18ef553"
    },
    {
      "constant": false,
      "inputs": [
        {
          "name": "_docAdress",
          "type": "address"
        }
      ],
      "name": "removePermit",
      "outputs": [],
      "payable": false,
      "stateMutability": "nonpayable",
      "type": "function",
      "signature": "0x2bd9f3d9"
    }
  ],
  "bytecode": "0x608060405234801561001057600080fd5b506107f9806100206000396000f3fe608060405260043610610078576000357c0100000000000000000000000000000000000000000000000000000000900463ffffffff1680632bd9f3d91461007d578063300e88bd146100ce578063b47fdf47146101f9578063b864866914610262578063d18ef553146103cd578063ee9b2a7e1461041e575b600080fd5b34801561008957600080fd5b506100cc600480360360208110156100a057600080fd5b81019080803573ffffffffffffffffffffffffffffffffffffffff169060200190929190505050610449565b005b3480156100da57600080fd5b50610107600480360360208110156100f157600080fd5b81019080803590602001909291905050506104a4565b60405180806020018060200184151515158152602001838103835286818151815260200191508051906020019080838360005b8381101561015557808201518184015260208101905061013a565b50505050905090810190601f1680156101825780820380516001836020036101000a031916815260200191505b50838103825285818151815260200191508051906020019080838360005b838110156101bb5780820151818401526020810190506101a0565b50505050905090810190601f1680156101e85780820380516001836020036101000a031916815260200191505b509550505050505060405180910390f35b34801561020557600080fd5b506102486004803603602081101561021c57600080fd5b81019080803573ffffffffffffffffffffffffffffffffffffffff16906020019092919050505061060b565b604051808215151515815260200191505060405180910390f35b34801561026e57600080fd5b506103cb6004803603606081101561028557600080fd5b81019080803590602001906401000000008111156102a257600080fd5b8201836020820111156102b457600080fd5b803590602001918460018302840111640100000000831117156102d657600080fd5b91908080601f016020809104026020016040519081016040528093929190818152602001838380828437600081840152601f19601f8201169050808301925050505050505091929192908035906020019064010000000081111561033957600080fd5b82018360208201111561034b57600080fd5b8035906020019184600183028401116401000000008311171561036d57600080fd5b91908080601f016020809104026020016040519081016040528093929190818152602001838380828437600081840152601f19601f82011690508083019250505050505050919291929080351515906020019092919050505061062b565b005b3480156103d957600080fd5b5061041c600480360360208110156103f057600080fd5b81019080803573ffffffffffffffffffffffffffffffffffffffff1690602001909291905050506106c8565b005b34801561042a57600080fd5b50610433610722565b6040518082815260200191505060405180910390f35b6000600160008373ffffffffffffffffffffffffffffffffffffffff1673ffffffffffffffffffffffffffffffffffffffff16815260200190815260200160002060006101000a81548160ff02191690831515021790555050565b6002602052806000526040600020600091509050806000018054600181600116156101000203166002900480601f0160208091040260200160405190810160405280929190818152602001828054600181600116156101000203166002900480156105505780601f1061052557610100808354040283529160200191610550565b820191906000526020600020905b81548152906001019060200180831161053357829003601f168201915b505050505090806001018054600181600116156101000203166002900480601f0160208091040260200160405190810160405280929190818152602001828054600181600116156101000203166002900480156105ee5780601f106105c3576101008083540402835291602001916105ee565b820191906000526020600020905b8154815290600101906020018083116105d157829003601f168201915b5050505050908060020160009054906101000a900460ff16905083565b60016020528060005260406000206000915054906101000a900460ff1681565b60008081548092919060010191905055508260026000805481526020019081526020016000206000019080519060200190610667929190610728565b508160026000805481526020019081526020016000206001019080519060200190610693929190610728565b5080600260008054815260200190815260200160002060020160006101000a81548160ff021916908315150217905550505050565b60018060008373ffffffffffffffffffffffffffffffffffffffff1673ffffffffffffffffffffffffffffffffffffffff16815260200190815260200160002060006101000a81548160ff02191690831515021790555050565b60005481565b828054600181600116156101000203166002900490600052602060002090601f016020900481019282601f1061076957805160ff1916838001178555610797565b82800160010185558215610797579182015b8281111561079657825182559160200191906001019061077b565b5b5090506107a491906107a8565b5090565b6107ca91905b808211156107c65760008160009055506001016107ae565b5090565b9056fea165627a7a723058206419084bc99d06fdc15d3b0b7dd8d6cee70be152d171dbfaab6e531a350924120029",
  "source": "pragma solidity ^0.5.0;\n\ncontract WHO {\n    uint public vaccinesId;\n\n    struct Vaccine {\n        string name;\n        string date;\n        bool applied;\n    }\n\n    mapping (address => bool) public docPermition;\n    mapping (uint => Vaccine ) public vaccines;\n\n    function vaccinate(string memory _name, string memory _date, bool _applied) public {\n        vaccinesId++;\n        vaccines[vaccinesId].name = _name;\n        vaccines[vaccinesId].date = _date;\n        vaccines[vaccinesId].applied = _applied;\n    }\n\n    function addDoc(address _docAdress) public {\n        docPermition[_docAdress] = true;\n    }\n\n    function removePermit (address _docAdress) public {\n        docPermition[_docAdress] = false;\n    }\n}\n",
  "sourcePath": "/home/skamy/proyects/ICV/contracts/WHO.sol",
  "compiler": {
    "name": "solc",
    "version": "0.5.0+commit.1d4f565a.Emscripten.clang"
  },
  "schemaVersion": "3.0.8",
  "updatedAt": "2019-05-16T23:07:11.371Z",
  "devdoc": {
    "methods": {}
  },
  "userdoc": {
    "methods": {}
  }
}